:020000040800F2
:10000000200F002089010008631D0008D71A00088E
:10001000611D0008210400083925000800000000C7
:100020000000000000000000000000009120000817
:100030005B040008000000008F20000893200008E7
:10004000A3010008A3010008A3010008A301000800
:10005000A3010008A3010008A3010008A3010008F0
:10006000A3010008A3010008A3010008A3010008E0
:10007000A3010008A3010008A3010008250400084B
:10008000A3010008A3010008A3010008A3010008C0
:10009000A3010008A3010008A3010008A3010008B0
:1000A000A3010008A3010008A3010008A3010008A0
:1000B000A3010008A3010008A3010008A301000890
:1000C000A3010008A3010008A3010008A301000880
:1000D000A3010008F1240008A3010008A3010008FF
:1000E0005D040008A3010008A301000800F002F865
:1000F00000F03AF80AA090E8000C82448344AAF188
:100100000107DA4501D100F02FF8AFF2090EBAE885
:100110000F0013F0010F18BFFB1A43F0010318473B
:10012000B0460000D0460000103A24BF78C878C11D
:10013000FAD8520724BF30C830C144BF04680C60ED
:10014000704700000023002400250026103A28BF35
:1001500078C1FBD8520728BF30C148BF0B60704739
:100160001FB51FBD10B510BD00F0BAF81146FFF75E
:10017000F7FF02F0BBFA00F0D8F803B4FFF7F2FF84
:1001800003BC00F0DBF8000009488047094800473D
:10019000FEE7FEE7FEE7FEE7FEE7FEE7FEE7FEE737
:1001A000FEE7FEE704480549054A064B7047000094
:1001B00009210008ED00000820090020200F002080
:1001C000200B0020200B002040EA010310B59B0704
:1001D0000FD1042A0DD310C808C9121F9C42F8D0B1
:1001E00020BA19BA884201D9012010BD4FF0FF3062
:1001F00010BD1AB1D30703D0521C07E0002010BD78
:1002000010F8013B11F8014B1B1B07D110F8013B03
:1002100011F8014B1B1B01D1921EF1D1184610BDE4
:100220004FF000020429C0F0128010F0030C00F01F
:100230001B80CCF1040CBCF1020F18BF00F8012B9D
:10024000A8BF20F8022BA1EB0C0100F00DB85FEA6B
:10025000C17C24BF00F8012B00F8012B48BF00F837
:10026000012B70474FF0000200B5134694469646A6
:10027000203922BFA0E80C50A0E80C50B1F12001B9
:10028000BFF4F7AF090728BFA0E80C5048BF0CC067
:100290005DF804EB890028BF40F8042B08BF7047C5
:1002A00048BF20F8022B11F0804F18BF00F8012B37
:1002B000704770477047704710B500F009F8006844
:1002C00010BD10B5044600F003F8046010BD000036
:1002D00000487047C008002000487047C008002050
:1002E0007546FFF7F9FFAE4605006946534620F014
:1002F0000700854618B020B5FFF754FFBDE8204041
:100300004FF000064FF000074FF000084FF0000BD1
:1003100021F00701AC46ACE8C009ACE8C009ACE884
:10032000C009ACE8C0098D46704710B50446AFF36C
:1003300000802046BDE81040FFF71FBF014918208C
:10034000ABBEFEE7260002007047000070B5044611
:1003500000688168C943C90717D1816821F001018C
:10036000816000F077FD05460AE000BF00F072FDF5
:10037000401B022804D920688068C043C00706D00B
:1003800020688068C043C007F0D0002070BDA06A1C
:1003900040F01000A062E06A40F00100E06201203D
:1003A00070BD0000F8B5002604460096006881681C
:1003B000C943C9072DD0816841F001018160164809
:1003C00016490068B0FBF1F000E0401E00900028E4
:1003D000FBD100F03FFD054616E000BF00F03AFDFE
:1003E000401B022810D920688068C043C0070BD08A
:1003F000A06A40F01000A062E06A40F00100E062F4
:1004000084F824600120F8BD20688068C043C007DC
:10041000E4D10020F8BD00001400002040420F008D
:10042000FEE70000014800F0EFBA00007C04002065
:1004300030B590F840500124AC40C56B6C60046846
:1004400063604368102B036803D099600068C26042
:1004500030BD9A600068C16030BD704710B54FF480
:10046000805000F0F5FB4FF4005000F0F1FBBDE8C8
:1004700010404FF4804000F0EBBB72B6FEE7000086
:10048000F8B50024009490F824202546012A12D0C3
:10049000012280F824204A681F23072A0DD206680B
:1004A000776B521E02EB820293409F430B6893408E
:1004B0001F43776319E00220F8BD06680D2A0AD2AF
:1004C000376BD21F02EB820293409F430B6893402D
:1004D0001F43376309E0F76A0D3A02EB820293404B
:1004E0009F430B6893401F43F7620A68072306681F
:1004F0000A2A0AD3F7680A3A02EB420293409F4362
:100500008B6893401F43F76008E0376902EB4202B3
:1005100093409F438B6893401F4337610A68102ABA
:1005200001D0112A20D1124B02689A4217D1936848
:100530001B0219D4936843F40003936009681029DF
:1005400012D10C490C4A0968B1FBF2F101EB8101AF
:10055000490000E0491E00910029FBD104E0816AB6
:1005600041F020018162012480F824502046F8BD2A
:10057000002401401400002040420F000068C06CBD
:10058000704700002DE9F0414FF0000704003D46A0
:100590007ED0A06A002628B9E66284F8246020464E
:1005A00000F07EF82046FFF7D1FEA16AC90600D40C
:1005B00020B1A06A40F01000A06269E0A16A21F4B5
:1005C000885141F00201A1626268E169237B0A431C
:1005D00047EA43010A43A1684FF48077B94209D042
:1005E000012907D05FF0000194F814C0BCF1010F9D
:1005F00002D00AE03946F7E7F3B1A36A43F02003DB
:10060000A362E36A43F00103E3622368D3F804C002
:100610002CF4694C4CEA010CC3F804C021688B68C7
:10062000DFF870C003EA0C0313438B60A168B94282
:100630000BD0012909D00CE0DFF85CC0A3690CEBFA
:1006400043330B4343F40061DFE7218A0D05A5F531
:1006500080152168CB6A23F470032B43CB62216899
:1006600089680E4B1940914208D1E662A16A21F0D7
:10067000020141F00101A162BDE8F081A06A20F011
:10068000020040F01000A062E06A40F00100E06269
:100690000120F1E7FDF7E1FF00E0FFFFFE0E1FFF85
:1006A00000B585B00021009101910291039100688D
:1006B0000E49884218D10E48816941F40071816168
:1006C000816901F400710491816941F0080181613F
:1006D0008069694600F00800049002200090032021
:1006E0000190044800F0C0FA05B000BD00240140AC
:1006F00000100240000C01402DE9F84300270D4690
:100700000446009700F0A6FB804620688168C90572
:1007100008D5A06A40F02000A06284F8247001206F
:10072000BDE8F8834168C90503D4C06A10F4700FAE
:100730002AD0022000F02CFC3B490968B1FBF0F6FE
:100740002068036939490B424FEA61014FEAA1125F
:100750001FD1C3684FEA611C13EA0C0F19D103695A
:100760000B4225D1C068104222D1142023E0681C1E
:100770000AD02DB100F06EFBA0EB0800A84203D90F
:1007800020680068800725D5206800688007EED5BE
:100790002DE003690B4202D1C168114206D0026903
:1007A00023490A4206D1C068084203D1542002E01E
:1007B000292000E0FC204643009816E0681C11D078
:1007C0002DB100F047FBA0EB0800A8420AD9009821
:1007D000B04207D2A06A40F00400A06284F82470FE
:1007E00003209DE70098401C0090B042E6D32168AA
:1007F0006FF012000860A06A40F40070A0622068E8
:100800008068C0F3424007280CD1207B50B9A06A11
:1008100020F48070A062A06AC00403D4A06A40F0F3
:100820000100A06200207BE71400002024499224EC
:100830004992240070B5044690F8240001280DD098
:10084000012084F824002046FFF7ACFD02004FF0A1
:10085000000005D084F82400104670BD022070BD51
:10086000A16A40F20123994341F48071A1621F4DB6
:1008700023681F49AB4218D10E6816F4702F14D0AC
:10088000A66A46F48016A6620E68760505D5A66AA5
:1008900026F4005646F48056A662A66AF6040AD5E7
:1008A000E66A26F00606E66206E0A66A26F48016E8
:1008B000A6625E68E9E7E06284F824006FF0020057
:1008C000186020688368C3F34243072B05D1A84210
:1008D00008D1096811F4702F04D0816841F48011A7
:1008E0008160B9E7816841F4A001F9E7002801407F
:1008F0000424014010B5044690F82400012807D0D4
:10090000012084F824002046FFF720FD10B107E005
:10091000022010BDA16A21F4885141F00101A162B9
:10092000002184F8241010BD10B590F82110002289
:10093000022905D00421816380F82020012010BD08
:1009400001680B6823F00E030B6001680B6823F04D
:1009500001030B6090F84030C46B012101FA03F3EE
:10096000636080F8211080F82020104610BD000040
:1009700010B590F821100024022903D004218163CE
:1009800001243DE001680A6822F00E020A60016855
:100990000A6822F001020A601A4A0168914201D1F4
:1009A000012121E0174A1432914201D110211BE0AC
:1009B000144A2832914201D1891515E0114A3C327E
:1009C000914201D189140FE00E4A5032914202D176
:1009D0004FF4803108E00B4A6432914202D14FF467
:1009E000801101E04FF08071064A083A5160012100
:1009F00080F82110002180F82010416B01B1884758
:100A0000204610BD080002402DE9F05FC16B0C6864
:100A100001680B68D0F840C0042202FA0CF2494D7C
:100A2000DFF824A1494E4A4FDFF828B1DFF828E16A
:100A300022422CD05A072AD50A68920603D40A68A3
:100A400022F004020A600168A94201D1042219E0DF
:100A5000514501D1402215E0B14202D14FF48062EC
:100A600010E0B94202D14FF480420BE0594502D167
:100A70004FF4802206E0714502D14FF4800201E07C
:100A80004FF080622F4908394A60C16A3BE04FF05D
:100A9000020808FA0CF818EA040F4FF000094FF0AA
:100AA000010235D05FEA837832D50B689B0605D406
:100AB0000B6823F00A030B6080F821200168A9422B
:100AC00001D1022219E0514501D1202215E0B142A5
:100AD00002D14FF4007210E0B94202D14FF400523B
:100AE0000BE0594502D14FF4003206E0714502D1C6
:100AF0004FF4001201E04FF00072124908394A60C9
:100B000080F82090816A00291AD0BDE8F05F08477C
:100B1000082505FA0CF5254212D01B0710D50B68E5
:100B200023F00E030B6090F84010C36B02FA01F142
:100B30005960826380F8212080F82090016BE2E701
:100B4000BDE8F09F080002401C0002403000024057
:100B500044000240580002406C00024030B528B307
:100B600008C8134914221944B1FBF2F18900C1638A
:100B700010498163022141771A6843F6F0718A4374
:100B8000D0E900142143D0E902452C4321430469F4
:100B900021434469214384692143114319600021A1
:100BA0004163012242770177084630BD012030BD04
:100BB000F8FFFDBF0000024070B5044690F8200029
:100BC000002501280CD0012084F8200094F8216031
:100BD0000020012E06D084F820000225284670BD92
:100BE000022070BD022684F82160A0632068066898
:100BF00026F0010606602046FFF71AFCE06A00288E
:100C00002068016802D041F00E0106E021F00401E5
:100C100001602068016841F00A01016020680168F4
:100C200041F001010160D9E770B5044600F012F906
:100C30000546601C02D004480078044400F00AF91C
:100C4000401BA042FAD370BD08000020704700008E
:100C5000044910B50A68024202D00860FFF7F6FFA7
:100C600010BD0000140401402DE9F84FDFF8B891E1
:100C70000024A9F1040B23460F2709F1040AABF164
:100C8000040EC9E00125A5402A40AA427DD1674E45
:100C9000D1F804C0ACEB0608B44532D014DCBCF18A
:100CA000030F3AD009DCBCF1000F2AD0BCF1010FD0
:100CB0001CD0BCF1020F31D11DE0BCF1110F17D0D7
:100CC000BCF1120F2AD119E0B8F5881F19D006DC43
:100CD000B8F5803F15D0B8F5801F1FD111E0B8F5E9
:100CE000001F0ED0B8F5041F18D10AE0CB6815E03C
:100CF000CB681B1D12E0CB6808330FE0CB680C33C8
:100D00000CE08B682BB1012B4FF0080303D0456139
:100D100004E0042302E0056100E00023FF2A01D87B
:100D2000064601E000F104064FEA840501D9A5F169
:100D30002005D6F8008007FA05FC28EA0C0803FA1B
:100D400005F548EA0508C6F800804D68ED0062D553
:100D5000374DAE6946F00106AE61AD6924F0030679
:100D600005F001050095334D06EB050CDCF8085045
:100D7000A607360F07FA06F825EA0805DFF8B88057
:100D8000404503D14FF0000817E044E0DFF8AC80A5
:100D9000404502D14FF001080FE0DFF8A480404544
:100DA00002D14FF0020808E0DFF89880404502D1F8
:100DB0004FF0030801E04FF0040808FA06F848EA8B
:100DC0000508CCF808804D68D9F80060ED024D4662
:100DD00001D5164300E096432E604D68DAF80060B6
:100DE000AD02554601D5164300E096432E604D688E
:100DF000DBF80060AD035D4601D5164300E0964385
:100E00002E604D68DEF80060ED03754601D516438F
:100E100000E096432E60641C0D682A46E5407FF48E
:100E200031AFBDE8F88F0000080401400000111048
:100E3000001002400000014000080140000C014089
:100E400000100140001401400AB10161704709041B
:100E5000FBE70000014880687047000008000020A0
:100E600002488168027811448160704708000020C0
:100E7000074810B5016841F010010160032000F03F
:100E800075F80F2000F006F800F024F8002010BDDF
:100E90000020024070B50D4D04464FF47A71287859
:100EA000B1FBF0F00A490968B1FBF0F000F0A4FBD7
:100EB00048B9102C07D200222146501E00F036F807
:100EC00000206C6070BD012070BD00000800002093
:100ED000140000200C4808B5816941F001018161CE
:100EE000816901F001010091C16941F08051C16146
:100EF000C06900F0805000900448416821F0E06132
:100F000041F00071416008BD001002400000014046
:100F1000002809DB00F01F020121914040098000F8
:100F200000F1E020C0F8001170470000F0B40E4B53
:100F30001B680C46C3F30223C3F10705042D00D937
:100F40000425191D072901D2002300E0DB1E01261C
:100F500006FA05F1491E214099409E40761E164032
:100F60003143F0BC01F0FDBA0CED00E0064900F0A1
:100F7000070208684FF6FF03184040EA0220034AC0
:100F800010430860704700000CED00E00000FA0517
:100F900010B501460020234C012922D0022939D066
:100FA00010291DD161682268D20119D51E48C1F3EC
:100FB0008342C903805C0AD561681B4AC1F3404182
:100FC000921E515C194AB2FBF1F1484301E0184905
:100FD00048436168490203D440000321B0FBF1F0AB
:100FE00010BD226AC2F30121012903D1920701D564
:100FF000C80310BD022905D1626A920702D549F6DD
:10100000404010BD0329FCD121688903F9D54FF276
:10101000244010BD00F02AF96168C1F38131491CF8
:101020004900DBE700100240E83E000800127A00A9
:1010300000093D002DE9F84305460078354CC0070E
:1010400054D0E0690026C00008D4E06940F0805028
:10105000E061E069012600F0805000902E480168B0
:10106000C90512D40168804641F480710160FFF720
:10107000F1FE074605E000BFFFF7ECFEC01B642849
:1010800023D8D8F80000C005F6D5206A10F44070C7
:1010900021D0A98801F4407181421CD0206A1F49E7
:1010A000012220F440700A6000220A602062C0071A
:1010B00011D0FFF7CFFE074641F2883808E000BFA5
:1010C000FFF7C8FEC11B414502D90320BDE8F883E4
:1010D000206A8007F4D5206A696820F440700843CC
:1010E00020621EB1E06920F08050E061287880071E
:1010F00005D56068A96820F44040084360602878FE
:10110000C00605D56068E96820F480000843606087
:101110000020DBE700100240007000404004424223
:101120002DE9F0470F46050061D0434E306800F0CE
:101130000700B84209D2306820F007003843306019
:10114000306800F00700B84251D128683B4C810755
:1011500012D5400703D5606840F4E06060602878ED
:10116000000703D5606840F4605060606068A9685B
:1011700020F0F000084360602878C00728D0686835
:10118000012810D02168022810D0890700292EDA02
:10119000616821F0030101436160FFF75BFE804657
:1011A00041F288390DE021688903EFE78901EDE715
:1011B000FFF750FEA0EB0801494502D90320BDE826
:1011C000F0876068696800F00C00B0EB810FEFD128
:1011D000306800F00700B8420BD9306820F00700F3
:1011E00038433060306800F00700B84201D0012079
:1011F000E5E72878400705D56068E96820F4E060F5
:10120000084360602878000706D56068296920F4E3
:10121000605040EAC100606000F038F86168084A38
:10122000C1F30311515CC8400649086006480068D4
:10123000FFF730FE0020C2E700200240001002400D
:10124000F83E0008140000200C0000200448054966
:1012500000684968044AC1F30221515CC8407047E4
:101260001400002000100240083F0008044805490F
:1012700000684968044AC1F3C221515CC840704704
:101280001400002000100240083F00080E4A516878
:101290000E4801F00C03042B11D0082B0FD10C4881
:1012A000C1F38343C903C05C0AD55168084AC1F33E
:1012B0004041921E515C054A5043B0FBF1F070472B
:1012C00004494843704700000010024000127A00B1
:1012D000D63E000800093D002DE9F84F040070D00B
:1012E0002078C04DC00749D06868C0F3810001284C
:1012F00007D06868C0F38100022809D16868C0037C
:1013000006D52868800339D560680028E7D035E025
:101310006068B0F5803F0BD010B1B0F5A02F11D0B0
:10132000286820F480302860286820F4802002E0BB
:10133000286840F480302860606890B1FFF78AFD2B
:1013400006460AE0286840F480202860F0E700BFE5
:10135000FFF780FD801B642873D828688003F7D5C9
:101360000CE0FFF777FD064605E000BFFFF772FDD2
:10137000801B6428F0D828688003F7D420789A4E20
:1013800080074FF001094FF0000839D5686810F068
:101390000C0F07D06868C0F38100022809D1686883
:1013A000C00306D42868800714D52069012808D115
:1013B00010E02069B0B1C6F80090FFF74BFD07467A
:1013C00005E00AE1FFF746FDC01B0228C4D82868E3
:1013D0008007F7D52868616920F0F80040EAC1006D
:1013E00028600DE0C6F80080FFF734FD074604E0F2
:1013F000FFF730FDC01B022823D828688007F7D4E8
:10140000207800072CD57948A169D9B1C0F800909F
:10141000FFF720FD074604E0FFF71CFDC01B022874
:101420000FD8686A8007F7D571484FF4FA51006801
:10143000B0FBF1F0009000BF0098411E0091FAD27D
:101440000EE080E0C0F80080FFF704FD074604E0EE
:10145000FFF700FDC01B022875D8686A8007F7D423
:101460002078400760D5E8690027C00008D4E86903
:1014700040F08050E861E869012700F0805000905A
:101480005C480168C90513D40168834641F4807142
:101490000160FFF7DFFC824606E000BFFFF7DAFCE1
:1014A000A0EB0A0064284ED8DBF80000C005F5D593
:1014B000E06801280AD008B1052813D0286A20F076
:1014C00001002862286A20F0040002E0286A40F047
:1014D00001002862E06841F2883B98B1FFF7BAFC4E
:1014E00082460BE0286A40F004002862EEE700BF65
:1014F000FFF7B0FCA0EB0A0159455AD8286A8007CB
:10150000F6D50CE0FFF7A6FC824605E0FFF7A2FC4B
:10151000A0EB0A0159454CD8286A8007F6D41FB1C0
:10152000E86920F08050E861E06988B36968C1F338
:101530008101022944D00228C6F8608004D0FFF758
:1015400089FC044638E034E0FFF784FC074604E0F9
:10155000FFF780FCC01B02282BD828688001F7D435
:10156000206AB0F5803F05D16868A16820F400309A
:1015700008436860D4E908010843696821F47411DC
:1015800008436860C6F86090FFF764FC044606E014
:1015900025E000BFFFF75EFC001B022809D8286881
:1015A0008001F7D51BE000BFFFF754FC001B0228A9
:1015B00002D90320BDE8F88F28688001F4D40EE03A
:1015C0000128F7D06868226A00F48031914204D182
:1015D000616A00F47010884201D00120EAE700201F
:1015E000E8E700000010024000004242800442424E
:1015F000140000200070004010B5401EB0F1807F44
:1016000001D3012010BD4FF0E02460610F2160176D
:1016100000F0A7FF0020A06107202061002010BD7E
:10162000704710B504460068406994F84110C0F353
:10163000C010212911D180B12068143050E8001F5A
:1016400021F0800140E80012002AF5D1A06B08B11A
:10165000FFF76AF9204600F0FEFD2068406994F823
:101660004210C0F38010222911D180B120681430BB
:1016700050E8001F21F0400140E80012002AF5D197
:10168000E06B08B1FFF750F9204600F0BDFD0020E7
:1016900010BD7047F8B5016804460868CA684B6910
:1016A00010F00F0F4FF0000559D003F0010602F4BF
:1016B0009077374365D0C10705D0D10503D5616C5C
:1016C00041F001016164410705D5D90703D0616C80
:1016D00041F002016164810705D5D90703D0616C2F
:1016E00041F004016164010707D502F02001314394
:1016F00003D0616C41F008016164616C00293AD04B
:10170000800604D5900602D5204600F0B2FD206880
:101710004069616CC0F38010090700D460B32046B3
:1017200000F072FD20684069400621D52068143021
:1017300050E8001F21F0400140E80012002AF5D1D6
:10174000E06BA8B16D494163E06BFFF711F9002828
:1017500011D0E06B416B01B0BDE8F0400847830653
:101760000FD593060DD52046BDE8F84000F081BDA9
:101770002046FFF78EFFF8BD2046FFF78AFF65641D
:10178000F8BD266B2023012E7CD1C6067AD5D6065D
:1017900078D508684868009048694FF0020640060E
:1017A00040D5E16B086840680004000CE8D0A28DC9
:1017B0008242E5D9E085886920282DD020680C3048
:1017C00050E8001F21F4807140E80012002AF5D192
:1017D0002068143050E8001F21F0010140E8001299
:1017E000002AF5D12068143050E8001F21F0400194
:1017F00040E80012002AF5D184F8423025632068C1
:101800000C3050E8001F21F0100140E80012002ABF
:10181000F5D1E06BFFF788F86663A08DE18D401A83
:1018200081B22AE0A08DE18D401A81B2E08D0028BE
:10183000A6D00029A4D022680C3252E8000F20F470
:10184000907042E80007002FF5D12068143050E86E
:10185000002F22F0010240E80027002FF5D184F884
:101860004230256320680C3050E8002F22F010022F
:1018700040E80023002BF5D166632046FFF7D0FE39
:10188000F8BDFFE705062BD5150629D594F84100CC
:101890002128F5D1A068B0F5805F01D12069B0B1F1
:1018A000206A411C2162216800784860E08C401E5B
:1018B0000004000CE084E3D12068C16821F08001BD
:1018C000C1602068C16841F04001C160D8E7206A6A
:1018D0000088C0F308004860206A801C2062E5E7A9
:1018E0004006CDD55006CBD5CA68204622F040022E
:1018F000CA6084F8413000F0EDF8C1E70B21000820
:1019000070B5040004D094F84100002510B106E041
:10191000012070BD84F84050204600F023F82420B8
:1019200084F841002068C16821F40051C16020465C
:1019300000F000FD2068016921F4904101612068F8
:10194000416921F02A0141612068C16841F40051D8
:10195000C1606564202084F8410084F8420065631A
:10196000002070BD70B586B0002506460095019533
:10197000029503950068224988423ED12149886931
:1019800040F480408861886900F480400490886950
:1019900040F00400886188691B4C00F0040004904A
:1019A00048150090022001900320039069462046CC
:1019B000FFF75AF92015CDE9000569462046029542
:1019C000FFF752F9124C1148C4E900058020C4E920
:1019D000025025616561A5612046E561FFF7BEF80B
:1019E00008B1FEF74AFDF463002211462520666225
:1019F000FFF79CFA2520FFF78BFA06B070BD0000B8
:101A00000038014000100240000801405800024028
:101A10007C04002090F84230202B01D00220704737
:101A200021B11AB10023036300F0E0BC012070472C
:101A3000704770472DE9F843044690F841009846F6
:101A400016460D46202802D00220BDE8F88385B155
:101A50007EB100206064212084F84100FFF7FAF98C
:101A6000A6848146E684A0682027B0F5805F02D076
:101A700003E00120E9E7206910B12E4600250EE0C1
:101A800000260CE08021204600F0F8FCA8B9C6B181
:101A900016F8010B21684860E08C401EE084E08C61
:101AA0004B464FF00002CDF800800028EAD14FF0FD
:101AB0004001204600F0E2FC40B184F84170032070
:101AC000C3E735F8020BC0F30800E3E784F8417080
:101AD0000020BAE77047FEE72DE9F0411C4F0024D3
:101AE00005464FF480487E14280601D5012200E007
:101AF000002241463846FFF7A7F9052000F048F9D3
:101B0000012231463846FFF79FF9052000F040F9E1
:101B1000002231463846FFF797F9052000F038F9E2
:101B20006806641C050EE4B2082CDDD301223146A0
:101B30003846FFF789F9052000F02AF900223146DE
:101B40003846FFF781F9BDE8F041052000F020B9E3
:101B50000010014070B50122104D94032146284623
:101B6000FFF772F90122560331462846FFF76CF958
:101B7000052000F00DF9002221462846FFF764F900
:101B8000052000F005F9002231462846FFF75CF9F0
:101B9000BDE87040052000F0FBB8000000100140D7
:101BA00070B5114D4FF40054002221462846FFF72E
:101BB0004BF96600002231462846FFF745F905201B
:101BC00000F0E6F8012221462846FFF73DF90520FE
:101BD00000F0DEF8012231462846FFF735F9BDE86E
:101BE0007040052000F0D4B8001001403EB500243C
:101BF00011480094019402940E49846001600473BA
:101C00000475012505614FF460214460C161FEF750
:101C1000B9FC08B1FEF731FC0920CDE900056946A1
:101C200002940548FEF72CFC002801D0FEF725FCA5
:101C30003EBD0000002401401C000020094808B5FA
:101C4000416941F0010141614069002200F0010059
:101C5000009011460F20FFF769F9BDE808400F20FA
:101C6000FFF756B90010024070B586B000252A482B
:101C70000095019502950395816941F010018161FC
:101C8000816901F010010491816941F020018161B5
:101C9000816901F020010491816941F008018161AD
:101CA000816901F008010491816941F004018161B9
:101CB00080691A4E00F004004FF4C04404900122E1
:101CC00021463046FFF7C0F8009401240320CDE9F7
:101CD0000240694601943046FEF7C6FF4FF4E040EB
:101CE00000900F48CDE901040E4C69462046FEF7EE
:101CF000BBFF2020CDE90005022002906946204666
:101D0000FEF7B2FF002211462820FFF70FF9282026
:101D1000FFF7FEF806B070BD001002400010014051
:101D200000002110000C01400C4810B50A49016068
:101D30004FF4E1314160002181600C22C160C0E9B3
:101D400004128161C161FFF7DBFD002803D0BDE80B
:101D50001040FEF792BB10BD003801403404002053
:101D6000FEE7FEE730B40021084C0A46002004EBF1
:101D7000C1131A54401CC0B28028FAD3491CC9B2FE
:101D80000829F3D330BC00F089B80000C00400205B
:101D9000002101E000BF491CB1EBC00FFAD370472E
:101DA00010B56420FEF740FFAE2000F04EF90A2087
:101DB000FEF73AFFD52000F048F9802000F045F901
:101DC0000A20FEF731FFA82000F03FF93F2000F085
:101DD0003CF90A20FEF728FFD32000F036F9002056
:101DE00000F033F90A20FEF71FFF402000F02DF924
:101DF0000A20FEF719FFA12000F027F90A20FEF7BC
:101E000013FFC82000F021F90A20FEF70DFFDA20A9
:101E100000F01BF9122000F018F90A20FEF704FF69
:101E2000812000F012F9CF2000F00FF90A20FEF710
:101E3000FBFED92000F009F9F12000F006F90A2094
:101E4000FEF7F2FEDB2000F000F9302000F0FDF894
:101E50000A20FEF7E9FEA42000F0F7F80A20FEF7BA
:101E6000E3FEA62000F0F1F80A20FEF7DDFE8D204B
:101E700000F0EBF8142000F0E8F80A20FEF7D4FE9A
:101E8000AF2000F0E2F80A20FEF7CEFEFFF76AFF6F
:101E90000021BDE81040084600F01AB82DE9F041D5
:101EA0000A4F00242146002000F012F8002507EB1D
:101EB000C416705D00F0DAF86D1CEDB2802DF8D319
:101EC000641CE4B2082CEDD3BDE8F081C00400200E
:101ED00010B50446B031C8B200F0B7F8102040EA9F
:101EE000141000F0B2F804F00F00BDE8104000F04C
:101EF000ACB80000F0B5203AD4B2174A082B02EB78
:101F0000C11216D0102B13D1782811D806290FD85A
:101F1000124B002101EB041645189F5D57551E44D6
:101F20001544491C367AC9B285F880600829F1D376
:101F3000F0BD7A28FCD80729FAD804EB4403084CF2
:101F4000002104EB430345185C5C491CC9B254559D
:101F50000629F8D3F0BD0000C0040020504100085D
:101F6000103F00082DE9F04700261D4691468A469D
:101F700080463446089F26E0281B401E01F0CFFB18
:101F800002460B460020184900F0FCFB01F09AFBCA
:101F9000B9FBF0F00A21B0FBF1F201FB120026B907
:101FA000691E8C4201DA90B101263030C2B2082F8E
:101FB00018D0082101FB0480C0B23B465146FFF710
:101FC00099FF641CE4B2AC42D6D3BDE8F087082F79
:101FD00006D0082101FB0480C0B23B462022EDE779
:101FE0000621F7E70621E5E7000024402DE9F0414E
:101FF0001E4617468846044600251FE033464146E4
:102000002046FFF777FF082E02D0102E04D005E0FF
:10201000A41DE4B2062002E00834E4B20820C0F1B6
:102020008000A04208D20024082E0CD05FF00201EC
:1020300001EB080000F0FF086D1CEDB27A5D002A8C
:10204000DCD1BDE8F0810121F2E710B50446FFF7CD
:1020500081FD7820FFF740FD0020FFF73DFD204681
:10206000FFF73AFDBDE81040FFF79ABD10B50446F2
:10207000FFF770FD7820FFF72FFD4020FFF72CFDC4
:102080002046FFF729FDBDE81040FFF789BD7047E6
:102090007047FEF7E5BE30B593B028216846FEF7DD
:1020A000E1F814210AA8FEF7DDF800240121080454
:1020B0000F94109412940491CDE90010CDE9080416
:1020C00011940294022507956846FFF705F908B1B7
:1020D00072B6FEE70F20CDE90A054FF48060CDE926
:1020E0000C4000210AA80E94FFF71AF808B172B646
:1020F000FEE70FA80F951194FEF79CFF002801D072
:1021000072B6FEE713B030BD704710B5406A0021CB
:10211000C185C184FFF7BDFA10BD70B5446A20685F
:10212000406994F84110C0F3C0100025212904D162
:1021300018B1E584204600F08EF82068406994F8D4
:102140004210C0F38010222904D118B1E585204641
:1021500000F05AF8606C40F0100060642046FFF711
:1021600098FA70BD10B50146406A096809684FF0D9
:10217000000289062ED4C28501680C3151E8003F67
:1021800023F4807341E80034002CF5D10168143148
:1021900051E8003F23F0010341E80034002CF5D161
:1021A0000168143151E8003F23F0400341E8003456
:1021B000002CF5D1202180F84210016B012909D1B2
:1021C00001680C3151E8003F23F0100341E800346E
:1021D000002CF5D14263016B012902D0FFF728FCE6
:1021E00010BD818DFFF71CFA10BD10B5406A0121AA
:1021F0004163016B012902D0FFF71BFC10BD818DEB
:102200004908FFF70DFA10BD01680C3151E8002FA5
:1022100022F4907241E80023002BF5D101681431BB
:1022200051E8002F22F0010241E80023002BF5D1F4
:10223000016B012909D101680C3151E8002F22F00E
:10224000100241E80023002BF5D1202180F8421034
:1022500000210163704701680C3151E8002F22F022
:10226000C00241E80023002BF5D1202180F8411065
:10227000704708B590F84210222901D0022008BD0D
:1022800082684FF480539A4201D1016921B1816A79
:102290009A421BD04AB10AE00268816A5268C2F3CE
:1022A00008020A80816A891C08E0026972B102682A
:1022B000526802F07F020A70816A491C8162C18DF6
:1022C000491E0904090CC18503D01BE0026852684D
:1022D000F1E70168CA6822F02002CA600168CA6892
:1022E00022F48072CA6001684A6922F001024A61E0
:1022F000202180F8421000214163026B012A03D0A3
:10230000FFF796FB002008BD016301680C3151E81E
:10231000002F22F0100241E80023002BF5D10168C4
:102320000A68D20602D50A6849680091818DFFF7D4
:1023300077F9E7E770B5044600680169E26821F4BF
:102340004051114301612169A06808436169084354
:102350002168CA6841F20C639A430243CA6020684C
:102360004169A26921F44071114341611E4920680D
:10237000884202D1FEF77AFF01E0FEF767FF00EB2B
:10238000C00101EB0012606864218000B2FBF0F331
:10239000B3FBF1F36FF018067343B2FBF0F5B2FB39
:1023A000F0F605EB8305322303EB0515B5FBF1F5DC
:1023B000B6FBF1F605F0F00505EB0615B2FBF0F6FD
:1023C000B2FBF0F0B0FBF1F06FF01802504306EBF7
:1023D000800003EB0010B0FBF1F0216800F00F006B
:1023E0002844886070BD00000038014038B5816223
:1023F00004468285002013466064222284F842202D
:10240000E56B1B4AAA62E56B1A4AEA62E56B1A4A57
:102410002A63E26B50630A462168E06B091DFEF7F0
:10242000CBFB2068016840680090206948B12068B3
:102430000C3050E8001F41F4807140E80012002A7F
:10244000F5D12068143050E8001F41F0010140E848
:102450000012002AF5D12068143050E8001F41F026
:10246000400140E80012002AF5D1002038BD0000EC
:1024700065210008EB2100081B2100082DE9F84325
:10248000984617460D460446089E24E0701C22D04C
:10249000FEF7E0FCA0EB0800B0421AD8CEB12068ED
:1024A000C168490717D5802D15D0402D13D001687C
:1024B000C94309070FD401680025406800902046F1
:1024C000FFF7A2FE0820606484F840500120BDE8B8
:1024D000F8830320FBE72068006835EA000004D099
:1024E0000020B842D2D00020F1E70120F9E7000037
:1024F0000D4808B500680168C943C9060FD40168D2
:10250000406800900848FFF78CF808480068406869
:102510000749C0F57A700870064901200870BDE8C7
:1025200008400148FFF7B6B8340400207C040020BE
:102530000400002005000020FEE7490050EAC12009
:1025400018BF04204A0D18BF40F0010040F2FF728E
:10255000B2EB515F08BF40F00200012808BF052020
:1025600070470907090E002804DB00F1E02080F81D
:102570000014704700F00F0000F1E02080F8141DF7
:1025800070472DE9F0414F1E00EBC7010446D1E929
:10259000000115461E4637F006020DD02A46334686
:1025A00001F010F97F1E04EBC703D3E9002300F00C
:1025B00075FE37F00602F1D1022F25D0042F13D07B
:1025C000062F18BFBDE8F0812A46334601F0FAF81D
:1025D000D4E90A2300F062FE2A46334601F0F2F8FD
:1025E000D4E9082300F05AFE2A46334601F0EAF8FF
:1025F000D4E9062300F052FE2A46334601F0E2F801
:10260000D4E9042300F04AFE2A46334601F0DAF802
:10261000D4E9022300F042FE2A46334601F0D2F804
:10262000D4E90023BDE8F04100F038BE0022134693
:102630001046014900F0EEBE0000F03F00F02EBE53
:10264000002213461046114600F0E4BE40F201326B
:1026500000204FF0E04101F0F7BB0000024A0020EB
:10266000110701F0F1BB000001FDFFFF164810B596
:10267000027812A1002A20D00024047009221348F5
:10268000FDF7A2FD50B91249012008230870014648
:1026900010A20020FFF7AAFCFFF700FC114804700D
:1026A0004FF47A7421460948FDF7BAFD2246BDE889
:1026B000104006490C48FFF7ADB910BD302C434F10
:1026C0004E4E454354000000050000204C00002001
:1026D00018000020436C69656E7420436F6E6E6550
:1026E00063740000040000203404002008B5FEF7E5
:1026F000BFFBFFF7D0FCFFF7B7FAFFF79FFAFFF732
:1027000075FAFFF711FBFFF74BFB00F04DFD0026BC
:10271000164C08254FF4FA771548FEF78BF864211C
:102720001348FDF7E9FF18B91148FDF727FF60804E
:102730000F48FEF7DFF8207810B1FFF713FB267083
:10274000002108230BA20846FFF750FC0095042344
:10275000628800215420FFF705FCFFF79FFBFFF77D
:1027600085FF3846FEF760FAD6E70000000000203B
:102770001C000020555620496E74656E736974798B
:102780003A0000002DE9F04D1D460C4698B0174662
:1027900021F0004123F00043002814BF4FF0010C4A
:1027A0004FF0000C0CEB440CFE4A0CEB02064FEA17
:1027B000620C66452BD33E0018BF012606EB45068A
:1027C0001644F94A964222D3F84A53EA070C02D03B
:1027D000944205D148B918B000201146BDE8F08DEB
:1027E000002808BF4FF0000C01D04FF0010C0CEB9B
:1027F000440212F5001F0AD8002F14BF4FF0010C3D
:102800004FF0000C0CEB450212F5001F07D918B071
:102810003A462B462146BDE8F04DFFF70FBF002298
:10282000DFF88CA3002CB8BF534526DADFF884C349
:102830006345A8BF022220DADFF870C39C451CDC88
:10284000DFF874C30CEB235CBCF1140F08DDCCF192
:10285000340627FA06FC0CFA06F6BE420DD108E053
:102860005FB9CCF1140623FA06FC0CFA06F69E4278
:1028700003D10CF00102C2F1020251EA000C19D19D
:10288000002D17DA002C18BF022A01D0012A07D028
:102890000220FDF716FD18B0BDE8F04DFFF7C6BEEB
:1028A0000220FDF70EFDFFF7C1FE18B081F00041D8
:1028B000BDE8F08DB7F1000C6CD1534525D104F182
:1028C000804212F5801201BF00280020B74918B0DD
:1028D00008BFBDE8F08DB548884207DC002DA1BFD8
:1028E0006046294618B0BDE8F08D07E0281E05DADD
:1028F00080F0004118B06046BDE8F08DAF497944E2
:10290000D1E9000118B0BDE8F08DDFF8A0C2634541
:1029100025D1002D1FDA19B1514512D1D8B909E0DE
:10292000002840F0EC82A24A214618B062F31E0152
:10293000BDE8F08D0020214618B060F31E01BDE80F
:10294000F08D08DA18B02346BDE8F04D02460020AD
:10295000614600F05FBD18B02146BDE8F08D5145DD
:1029600018DAB5F1804F0DD0A5F1005CBCF1FF5C29
:1029700010D1B4F1000C0DDB18B06146BDE8F04D8C
:1029800000F0ECBB234618B00246BDE8F04D1946F6
:1029900000F018BF060024F0004C3BD1D9B15145DE
:1029A00033D1002C06DD002DA1BF0020514618B008
:1029B000BDE8F08D002C01DD002D1BDB002C13DAAF
:1029C000002D11DB012A4FF0000014BF78497C492B
:1029D00018B0BDE8F08D022A18BF002C0AD0012AD9
:1029E00008D1002C06DA0AE0002CB8BF002D11DA5D
:1029F000012A04D0002018B00146BDE8F08D18B0BF
:102A000000204FF00041BDE8F08DA1F14050B0F141
:102A10007F601AD0012000EBE47050EA020421D05C
:102A2000624C521E4FF0000B104304BF4FF0000BDE
:102A3000644C654883427CDD644A654893421FDDEF
:102A4000884217DB002D25DB37E0002C00DA4AB185
:102A5000022A0CBF01204FF0FF3018B0BDE8F04D46
:102A600000F05DBE0120FDF72CFC18B0BDE8F04D74
:102A7000FFF7E6BD4D4A8A4202DC002D0ADC1CE06D
:102A8000814202DA002D18DA04E0484B994220DD39
:102A9000002D12DD0220FDF714FCFFF7D7FD0546DF
:102AA0000E46002253465846214600F08BFE18B0D1
:102AB00066F31E012846BDE8F08D0220FDF701FCFB
:102AC000FFF7CCFD0A46214618B062F31E01BDE8AF
:102AD000F08D00223046614601F09AF880460E469D
:102AE0006FF0010201F0B0F94FF05532394B00F0B0
:102AF0009DFF4246334600F065FE0022364B00F053
:102B000095FF82464246334604911046194600F02E
:102B100059FE5246049B00F055FE8A4600904FF045
:102B2000C0422E4B4046314600F04CFE2C4A2B4B07
:102B300000E027E0CDE906015146009800F042FE92
:102B400082460191274A284B4046314600F03AFE22
:102B50005246019B01F05CF882460B460246059105
:102B6000DDE9060100F09AFBDDE906230026884630
:102B7000304601F04DF85246059B00F057FF0246E3
:102B800000F07EB90020B1F5801F07DA352230460B
:102B9000614601F059F906466FF0340000EB215010
:102BA00024E00000FFFF1F00FFFF0F000000F03FC8
:102BB0000000F07F0000404301FCFFFFC61E000044
:102BC0000000F0FF0000F0BF0000E0410000F04313
:102BD000FFFFEF3F5555D53F0000E03F4715F73F5A
:102BE000FE822B6544DF5DF80BAE543EA0F2FF3051
:102BF0000190C1F3130040F07F6141F04051029118
:102C0000FE498842D8BF002004DDFD498142C8BF8B
:102C1000012001DD0D9008E000200D900198401C7E
:102C200001900298A0F5801002900299F54878442E
:102C30000B910D9900EBC100D0E900230F933046B2
:102C40000A920B9900F0E4FFCDE90601DDE90A21C3
:102C500030460F9B00F022FB02460B460020EA495B
:102C600000F0D8FB059102460B460090DDE9060115
:102C700000F0A8FD1490E5488A464FF0000878441B
:102C80000299006812904FF0005040EA61010D98DF
:102C90000F9B01EB804000F5002109910A9A1298E0
:102CA00000F0B6FF32460B9B00F0C0FE4246534692
:102CB00000F088FD0646029140465146099B129A53
:102CC00000F080FDDDE9062300F0B0FE3246029BF5
:102CD00000F09EFF059B009A00F074FD0091149A8D
:102CE000049053461046194600F06CFD0646024615
:102CF000C7480B46029106217844FFF742FCCDE914
:102D00000510029B32461046194600F05BFDDDE9D6
:102D1000053200F057FD05910646534640461946D8
:102D2000149A00F0BBFA009B049A00F04BFD324667
:102D3000059B00F0B3FACDE9051042465346104614
:102D4000194600F03FFD0022B24B02910A9000F0BC
:102D5000A5FADDE9053200F0A1FA0E464246AD4B78
:102D6000404600F055FF029B0A9A00F051FFDDE952
:102D7000053200F05BFE424602910A90334610464F
:102D8000514600F01FFDCDE906015346149A029901
:102D90000A9800F017FD8A46029033464246009991
:102DA000049800F00FFD5346029A00F077FA82462D
:102DB0000B4602460591DDE9060100F06FFADDE9F8
:102DC000062300208846064600F022FF5246059B57
:102DD00000F02CFE824609914FF060428E4B304647
:102DE000414600F0EFFC049006918C4A8A4B504615
:102DF000099900F0E7FC82460291894A894B3046E6
:102E0000414600F0DFFC5246029B00F047FA864B39
:102E10007B440D9A03EBC203D3E9002300F03EFA92
:102E20000E900791019800F07AFC0591DDE90613F8
:102E300082460E9A049800F031FA7C4A7A440D9B3F
:102E400002EBC303D3E900230093029200F026FAB9
:102E50005246059B00F022FA00268846524630462C
:102E6000059B00F0D5FE009B029A00F0D1FE069B68
:102E7000049A00F0CDFE079B0E9A00F0D7FD0246A3
:102E800000200B4602903846294600F09BFC824603
:102E900001912B4638461946029A00F0B9FE324697
:102EA000434600F08FFC5246019B00F0F7F90746BD
:102EB0008A46324643462946029800F083FC05467E
:102EC0000E463A46534600F0E9F9594A884691427F
:102ED00021DBA8EB020353EA000210D12A46334655
:102EE00000F096FECDE90401524A534B3846514654
:102EF00000F0D4F9DDE9042300F062FD21D20220C4
:102F0000FDF7DFF9FFF7A2FB0A46214618B062F38E
:102F10001E01BDE8F08D494B28F000429A4210D3C3
:102F2000474A08EB020353EA00027FF4C6AD2A4683
:102F3000334600F06DFE3A46534600F041FD7FF601
:102F4000BCAD0022019228F000403E493E4A01EB10
:102F50002051824223DA481C4FF4801121FA00F0FC
:102F600040443A4AC0F30A517A44394BA1F2FF3146
:102F7000CB4020EA0303C0F3130040F48010C1F1FA
:102F80001401C84012680190B8F1000FBCBF404264
:102F900001902846314600F03BFE05460E462A4683
:102FA00033463846514600F079F94FF00008424662
:102FB000284B4046059100F005FCCDE90601264A64
:102FC000264B4046059900F0FDFB009102902A46F1
:102FD00033464046059900F01BFE3A46534600F042
:102FE00025FD1F4A1F4B00F0EDFB009B029A00F0ED
:102FF00055F90746884602460B4635E08E98030091
:103000007AB60B000E1B00000000F03F461B0000CC
:10301000741A00000000084009C7EE3FFD033ADCC7
:10302000F5015B14E02F3EBE4C19000010190000A2
:1030300000009040FE822B654715973C00CC9040E5
:1030400000346F3F01FCFFFF0000E03F5C18000010
:10305000FFFF0F00432EE63F396CA80C615C20BED9
:10306000EF39FAFE422EE63FDDE9060100F016F9DF
:10307000DDE9062305460E4600F0CAFD3A46434602
:1030800000F0D4FC0F462A463346009010461946FD
:1030900000F098FB824602462E4888460B460521E2
:1030A0007844FFF76EFA5246434600F08BFB2A46FF
:1030B000334600F0BBFC80468A463B4628463146F4
:1030C000009A00F07FFB3B46009A00F0E7F806917B
:1030D000009000224FF080434046514600F098FD9A
:1030E0000F460C90424653462846314600F06AFB94
:1030F0003B460C9A00F08EF9069B009A00F088FD82
:103100002A46334600F084FD0022134B00F08EFC6B
:10311000054601980E4601EB00510815002810DC09
:1031200028463146019A00F08FFEFFF706FA042880
:1031300008BFFFF793FA28463146019A00F084FE53
:1031400005460B4618B02A4658462146BDE8F04DC4
:1031500000F038BBFC1600000000F03F2DE9F04104
:1031600006460F4600F06EFC041E0D4618BF0120F7
:10317000284320F00040C0F17F6000F1E040C00F24
:103180000ED0301C18BF0120384320F00040C0F1A1
:103190007F6000F1E040C00F04BF0120FDF791F80F
:1031A00020462946BDE8F08170B54FF6FF752B46E5
:1031B0000D221DA12048FEF73DFC4FF47A742046F5
:1031C000FDF732FD2B4626221CA11B48FEF732FCE0
:1031D0002046FDF729FD2B46082222A11648FEF7BE
:1031E00029FCA000FDF720FD2B460D2220A112484E
:1031F000FEF720FC2046FDF717FD2B46152220A1E7
:103200000D48FEF717FC2046FDF70EFD0A48006842
:10321000C16841F01001C16022461F490648FEF70F
:10322000F9FB012070BD000041542B43574D4F4422
:10323000453D320D0A0000003404002041542B4368
:10324000575341503D2245535038323636222C22B6
:1032500030313233343536373839222C31312C3055
:103260000D0A000041542B5253540D0A0000000077
:1032700041542B4349504D55583D310D0A00000033
:1032800041542B4349505345525645523D312C35FC
:103290003030300D0A0000004C00002010B591EADB
:1032A000030F48BF83F0004300F1BA84841A71EB26
:1032B000030C05D2121943EB0C03001B61EB0C014C
:1032C000DFF824E14FEA1154A4EB135C1EEA430F2C
:1032D00018BF9EEA445F73D023EA0E03DCF1200E90
:1032E00021EA045143F4801332D322FA0CFE10EB8E
:1032F0000E0023FA0CFE41EB0E01CCF1200E03FA76
:103300000EFE10EB0E0051F10001B1F5801FCCF163
:10331000200E32D201EB045112FA0EF2BDE8104039
:1033200058BF7047401C38BF5FEA420218BF704761
:10333000002814BF20F0010041F100014FEA4103D1
:1033400013F5001F38BF7047A1F1C04100F032BB38
:10335000012A43EB0302ACF1200CDCF11F0E32BF5B
:103360004FF0000E23FA0CF310EB030041EB045175
:10337000B4EB115FD0D0A1EB045101F580114908E5
:103380005FEA300001EB04510ED350F1000038BF6A
:1033900012FA0EFE08D1BDE81040C9E7401C38BF44
:1033A0005FEA4202CAD1C3E7BDE810404FEA4103D9
:1033B00013F5001F38BF7047A1F1C04100F0FABA01
:1033C0009EEA445F08D011EA5E0FBDE8104004BFDA
:1033D00001F0004100207047BDE8104070B500F0DA
:1033E0009BFA00BF64FBBE3E0000E0FF02494FF0C5
:1033F000000000F0F7BC00BF0000F87F491058BF84
:10340000C1F140415B1058BFC3F140438B42EFF321
:10341000008070472DE9C04130B4DFF8A0C23CEA1B
:10342000111418BF3CEA131400F0EC8081EA030584
:103430001CEA111444EAD57418BF1CEA131500F0F5
:10344000C780A4EB05044FF0004545EAC12145EAD9
:10345000C32341EA505143EA525304F17F74994225
:1034600004F500344FEAC0204FEAC22208BF904260
:1034700000F09C804FEA13650FF24016765D4FEA2C
:10348000134506FB05F7C7F1807706FB07F74FEA00
:10349000D737A7FB03687642C8F58038A7FB06CE6E
:1034A00038BFA8F1010807FB08E64FF0000EA6FBA5
:1034B000028CE6FB03CEDCF1000CCEF1004E38BFEF
:1034C000AEF1010EA6FB0C584FF000074FF00005BF
:1034D000E6FB0E87A1FB08C6A0FB07CE16EB0E0687
:1034E00045F10005E1FB076515F1E04E7EBFA4F54F
:1034F00080345FEA46066D4116F1800745F100050C
:103500004FEA17274FEA066647EA0567A6F1DE4647
:10351000B6F1805F4FEA15251FD9384624F0010C1B
:1035200005EBC471BCF1FE6F01EB0C1102D8F0BCCD
:10353000BDE8008124425CBF01F5801E9EEAC47F85
:1035400002D4F0BCBDE80081244238D4F0BCA1F123
:10355000C041BDE8004100F02DBA4FEAD22242EA54
:1035600043524FEAD323A7FB02864FEAD02040EA1A
:10357000415007FB03661EEA0E0F4FEAD12105FBFF
:10358000026658BFA6EB0056B6EB00564FEA520E45
:103590004EEAC37E18EB0E0E56EB530EBDD518EB5C
:1035A00002085E417F1C55F10005B6E74FF4801517
:1035B0004FF000074FF000064FF00008ADE7F0BCF9
:1035C0004FF0000001F1C04101F00041BDE8008171
:1035D00011EA0C1F0CEA131500D00CE013EA0C1FC3
:1035E00000F025804FF00000F0BC81EA030101F0FB
:1035F0000041BDE80081F0BCBDE8004181EA030163
:1036000000F0D8B9F0BCBDE8004170B500F084F915
:10361000097EFC3E00F007B881EA03014FF000008C
:1036200001F00041704781EA030100F0C3B9F0BC2A
:10363000BDE800414FF0000021497047FFFDFBF954
:10364000F7F5F4F2F0EEEDEBE9E8E6E4E3E1E0DED5
:10365000DDDBDAD8D7D5D4D3D1D0CFCDCCCBCAC847
:10366000C7C6C5C4C2C1C0BFBEBDBCBBBAB9B8B76E
:10367000B6B5B4B3B2B1B0AFAEADACABAAA9A8A861
:10368000A7A6A5A4A3A3A2A1A09F9F9E9D9C9C9B2F
:103690009A999998979796959594939392919190DA
:1036A0008F8F8E8E8D8C8C8B8B8A8989888887876B
:1036B0008685858484838382828181800000FF07E0
:1036C0000000F87F4FEA1153A3F58063D3F11E0386
:1036D000A8BFD3F1200C08DB4FF0004242EAC12220
:1036E00052EA505232FA03F0704709420BD4102BC1
:1036F000C4BF0020704703F5787CBCF1FF3F05D0C4
:103700004FF0FF3070474FF00000704770B500F089
:1037100003F900BF4992248000207047F0E710F0C1
:10372000004248BF4042B0FA80F310FA03F10AD0D9
:10373000C3F11D0303F580634FEA415002EB0352CE
:1037400002EBD12170474FF00000704751EA030CA3
:1037500017D41CF5801F58BFBCF5801F00F10680F0
:10376000994218BF704708BF9042704707D711F5BC
:10377000801F58BF13F5801F19D4994270478942A2
:1037800070471CF5801F08D5BCF5801FF7D58B420C
:1037900018BF704708BF824270474FF4001C1CEBF3
:1037A000410F38BF1CEB430F01D28B42704770B5FD
:1037B00000F0B2F8922449004FF000514FF08053CE
:1037C000FFF71CBEDFF848C170B51CEA111E1EBF12
:1037D0001CEA13159EEA0C0F95EA0C0F00F06F809F
:1037E00081EA030423EA4C134EEAD47E21EA4C1109
:1037F00041F4801143F48013AE44A1FB024CA0FBC2
:103800000365AEF17F7E361955EB0C05A1FB034C29
:103810004CF10003A0FB021C16EB0C06654153F1B2
:103820000003094218BF46F0010613F4007F0BD1D4
:103830004FEA03314FEA0530340341EA155140EABB
:1038400016506FF003020AE04FEAC3214FEAC52089
:10385000F40241EA555140EA56506FF0020202EB81
:103860002E4201EB025585EACE710AD05FEA440C84
:1038700018BF24F0004450F1000041F1000120EA9B
:10388000D47040F2FE7C624500D270BDA84214BFE5
:103890004FF080444FF04044002E08BF0024BEF19A
:1038A000806FA8BFA1F1C041BDE8704080F2828066
:1038B0004FF0000001F1C04101F0004170479EEA65
:1038C0000C0F0CEA131518BF95EA0C0F06D04FF039
:1038D000000081EA030E0EF0004170BD00F01CF8FC
:1038E0008900013E00F007B800F009B84FEA430C28
:1038F0005FEA5C5C08D081EA030100F05BB84FEA44
:10390000410C5FEA5C5CF6D14FF000000149704762
:103910000000FF070000F87F0EF1020E2EF0030EEC
:103920005EF8046B364205D4012A43EB030515F516
:10393000001F12D8012841EB010C1CF5001F0CD808
:103940000ED14FEAD17C15F5001F0CEB4C0C0CF19D
:10395000020C08BF4CEBD37C04E04FF0080C01E0F4
:103960004FEAD37C0CEB4C0526FA05F606F0070669
:10397000B6F1040C06D20EEB860CBDE870404CF09C
:10398000010C6047DFE80CF0090B02024FF0004128
:103990004FF00000A1F5002170BD19461046012826
:1039A00051EB010418BFD4F5001484BF002001F0CE
:1039B000004170BD0808A0F500114FEA31017047C1
:1039C00053EA010C17D41CF5801F58BFBCF5801FAB
:1039D00000F106808B4218BF704708BF82427047D3
:1039E00007D713F5801F58BF11F5801F19D48B42DC
:1039F00070479B4270471CF5801F08D5BCF5801F9F
:103A0000F7D5994218BF704708BF904270474FF4EE
:103A1000001C1CEB430F38BF1CEB410F01D2994235
:103A200070470FB40CBC03BCFFF7C1BE91EA030F93
:103A300010B581F000413FF539AC83F0004300F050
:103A4000EFB800002DE9F04101F5801CBCF5001F26
:103A5000C0F2C3804FEA115C21EA0C510CF1FD0C5D
:103A600041F480115FEA5C0C0CF5C07C01D340008E
:103A700049413DA4890241EA905187028E0E0A0C09
:103A8000A45D04FB04F602FB06F6C6F14046A4FB67
:103A90000662F60D46EA422606FB06F4A4FB012365
:103AA0005242C3F1404338BF5B1EA6FB02420024D2
:103AB000E6FB0324D20B42EA4446A6FB0623A1FB05
:103AC00002E2A3FB07E4A4184FF0000252F1000247
:103AD000E3FB01426442C2F1404E38BFAEF1010E39
:103AE000A6FB04234FF00002E6FB0E32A2FB0346C6
:103AF0004FF00004B61954F10004E2FB0264A1FB8C
:103B000006E6A4FB07E816EB08064FF0000858F19C
:103B10000008E4FB01687642C8F1405838BFA8F1BC
:103B20000108A2FB06E4A3FB08E52D194FF00004F1
:103B300054F10004E2FB0854A1FB05E6A7FB04E8EE
:103B400018EB06084FF0000656F10006E1FB04866C
:103B500018F1200556F10006A809A8F11B08B109C3
:103B600008F03F08B8F10A0F40EA86601CD901EB63
:103B70000C51BDE8F08100BFFCF5EEE8E2DDD8D3E2
:103B8000CFCBC7C3C0BDB9B6B4B1AEACA9A7A5A3CE
:103B9000A19F9D9B9A9896959392908F8D8C8B89DF
:103BA0008887868584838281A0FB006800FB01F200
:103BB00008EB4208B8EB872807D5341858EB010406
:103BC000D5D5401C51F10001D1E7341A78EB01043E
:103BD000CDD4401E71F10001C9E75FEA4C0C5FEAE9
:103BE0009C5C0DD105D34FF0000001F00041BDE811
:103BF000F081BDE8F04170B5FFF78EFE6DDBFFBED2
:103C0000BDE8F0414FF00000004970470000F87F28
:103C100010B591EA030F48BF83F000433FF546AB70
:103C2000841A71EB030C07D212198CF0004C43EB91
:103C30000C03001B61EB0C01DFF8A4E14FEA115407
:103C4000A4EB135C1EEA430F18BF9EEA445F00F02A
:103C5000B08023EA6E03524221EA0451C3EB6E03A3
:103C600038BF5B1EDCF1200E25D322FA0CFE10EBD0
:103C70000E0043FA0CFE41EB0E01CCF1200E03FACC
:103C80000EFE10EB0E0051F10001CCF1200E29D4F4
:103C900012FA0EF201EB0451BDE8104058BF704714
:103CA000401C1CBFB2F1004F704700280CBF491CDC
:103CB00020F00100704712EB020E43EB030218BF25
:103CC0004FF0010E4EEA4202ACF1200CDCF11E0E68
:103CD00054D943FA0CFE10EB0E0051F1FF31CCF138
:103CE0001E0ED5D50EF1010E12FA0EFE404141EB2B
:103CF000010101EB445C5FEA5C5C10D910EBDE7003
:103D000001EB045138BFBEF1004FBDE8104018BFB1
:103D1000704700280CBF491C20F00100704730D2CA
:103D20004FEAD42C11F5001124F400641BD0B1FA31
:103D300081F20B3AA41AA41ED2F12003914030FA6A
:103D400003F31943904001EBCC71002C01EB0451BB
:103D5000BDE81040A8BF704701F1C0414FF000001E
:103D600001F000417047B0FA80F310FA03F100D17E
:103D700010BDE41A173C4805C90AE4E701EB0451F9
:103D800010BD491001EB0451BDE810404FEA30006E
:103D900002E04FF0000170474A0008BF0042F8D02F
:103DA000B2F5001F28BF704701F000414FF000003E
:103DB00070479EEA445F07D011EA5E0FBDE81040ED
:103DC00004BF002100207047BDE8104070B5FFF728
:103DD000A3FD00BF40DFF63E83F000411046704770
:103DE0000000E0FF0CF00F03092B08BF082000F0D3
:103DF00059800A2B0BD0082B18BF704708BF1CF046
:103E0000400F0AD04FF000004FF0000170471CF047
:103E1000400F18BF4FF0004070471CF0100F08D043
:103E200020F0704300F07F4242EAD3014FEA437032
:103E3000704700F0604021F07F4242EA000201F04A
:103E40007F4040EA727070474FF0FF0C4CF4E06C1A
:103E50001CEA11531CBF9CEA030C9445C2BFDA4212
:103E600001EB02517047002B0DD0BCF1000F0FD0B9
:103E7000002A01F00041A4BF41F0E04141F07F6120
:103E80004FF00000704701F000414FF00000704714
:103E900050EA01334FF09B0C18BF4CF0806C7FF45C
:103EA000A5AA70471CF4801F11D01CF4E02F03D08A
:103EB0006FEACC31490070474FF04050EFF3008279
:103EC00022F0704242EA000282F3008870474FF00D
:103ED00000007047010202030405060708090A0BE7
:103EE0000C0D0E0F1010010202030405060708094D
:103EF0000A0B0C0D0E0F1010000000000000000057
:103F0000010203040607080900000000010203047F
:103F100000000000000000002F0000000007000764
:103F20000000147F147F1400242A7F2A1200626488
:103F300008132300364955225000000503000000F5
:103F4000001C224100000041221C000014083E0811
:103F5000140008083E0808000000A06000000808DF
:103F6000080808000060600000002010080402003B
:103F70003E5149453E0000427F40000042615149A8
:103F800046002141454B31001814127F100027458F
:103F9000454539003C4A4949300001710905030093
:103FA000364949493600064949291E00003636007F
:103FB00000000056360000000814224100001414CE
:103FC00014141400004122140800020151090600D3
:103FD000324959513E007C1211127C007F494949F7
:103FE00036003E41414122007F4141221C007F4971
:103FF000494941007F09090901003E4149497A00C8
:104000007F0808087F0000417F4100002040413FB9
:1040100001007F08142241007F40404040007F02A1
:104020000C027F007F0408107F003E4141413E00AA
:104030007F09090906003E4151215E007F091929C7
:10404000460046494949310001017F0101003F40D6
:1040500040403F001F2040201F003F4038403F00AD
:10406000631408146300070870080700615149458C
:104070004300007F4141000002040810200000417D
:10408000417F000004020102040040404040400023
:104090000001020400002054545478007F48444436
:1040A0003800384444442000384444487F003854A1
:1040B00054541800087E090102000C5252523E006E
:1040C0007F080404780000447D4000002040443D07
:1040D00000007F102844000000417F4000007C0465
:1040E000180478007C0804047800384444443800FC
:1040F0007C1414140800081414187C007C080404B0
:104100000800485454542000043F444020003C40E0
:1041100040207C001C2040201C003C4030403C00E3
:104120004428102844000C5050503C004464544C27
:10413000440000083641000000007F0000000041FC
:104140003608000008082A1C0800081C2A08080075
:10415000000000000000000000000000000000005F
:10416000000000F8000000000000003330000000F4
:1041700000160E00160E00000000000000000000F7
:1041800040C07840C0784000043F04043F0404006D
:10419000007088FC08300000001820FF211E00007D
:1041A000F008F000E018000000211C031E211E0092
:1041B00000F00888700000001E2123241927211018
:1041C00010160E00000000000000000000000000BB
:1041D000000000E018040200000000071820400062
:1041E00000020418E0000000004020180700000052
:1041F000404080F0804040000202010F01020200B6
:10420000000000F0000000000101011F0101010099
:10421000000000000000000080B0700000000000FE
:104220000000000000000000000101010101010187
:10423000000000000000000000303000000000001E
:1042400000000000806018040060180601000000F3
:1042500000E010080810E000000F102020100F00F0
:10426000001010F8000000000020203F2020000077
:1042700000700808088870000030282422213000CF
:1042800000300888884830000018202020110E00D7
:104290000000C02010F8000000070424243F240080
:1042A00000F80888880808000019212020110E0055
:1042B00000E0888888880000000F112020110E007F
:1042C00000180808886818000000003E010000007F
:1042D0000070888888887000001C222121221C0020
:1042E0000070888888887000003804020204780012
:1042F0000000000000000000003636000000000052
:10430000000000000000000000B676000000000081
:104310000000002010080400000000020408100043
:1043200000000000000000000022222222222200C1
:104330000000040810200000001008040201000022
:1043400000708808300000000000003806010000FE
:10435000C030C828E810E0000718272423140B00F9
:104360000000C038E0000000203C23020227382073
:1043700008F8888888700000203F202020110E0057
:10438000C03008080808380007182020201008004E
:1043900008F808080810E000203F210101110E0074
:1043A00008F88888E8081000203F20202320180003
:1043B00008F88888E8081000203F2000030000006B
:1043C000C03008080838000007182020221E02000C
:1043D00008F808000008F808203F210101213F20CB
:1043E000000808F8080800000020203F20200000F6
:1043F00000000808F8080800C08080807F000000E6
:1044000008F888C028180800203F2001263820001E
:1044100008F8080000000000203F20202020300085
:1044200008F8F800F8F80800203F003F003F20009F
:1044300008F830C00008F808203F200007183F00A7
:10444000E01008080810E0000F10202020100F00D6
:1044500008F808080808F000203F210101010000C9
:10446000E01008080810E0000F18242438504F000E
:1044700008F8888888887000203F2000030C3020CE
:1044800000708808080838000038202121221C000C
:10449000180808F8080818000000203F2000000055
:1044A00008F808000008F808001F202020201F003E
:1044B0000878880000C83808000007380E0100009E
:1044C000F80800F80008F800033C0700073C030068
:1044D000081868808068180820302C03032C3020CE
:1044E0000838C800C83808000000203F200000003D
:1044F00010080808C8380800203826212020180095
:10450000000000FE020202000000007F4040400068
:10451000000C30C000000000000000010638C000A0
:1045200000020202FE000000004040407F00000048
:10453000000004020202040000000000000000006D
:10454000000000000000000080808080808080806B
:104550000002020400000000000000000000000053
:1045600000008080808000000019242222223F2049
:1045700008F8008080000000003F112020110E008C
:104580000000008080800000000E1120202011001B
:104590000000808080F80000000E112020103F20D5
:1045A0000000808080800000001F22222222130051
:1045B000008080F0888888180020203F202000009C
:1045C0000000808080808000006B94949493600051
:1045D00008F8008080800000203F210000203F205C
:1045E00000809898000000000020203F202000005C
:1045F0000000809898000000C08080807F0000004C
:1046000008F8000080808000203F24022D30200028
:10461000000808F8000000000020203F20200000D3
:104620008080808080808000203F20003F20003FED
:104630008080008080800000203F210000203F20FB
:104640000000808080800000001F202020201F00AC
:10465000808000808000000080FFA12020110E00DB
:104660000000008080808000000E112020A0FF80CC
:10467000808080008080800020203F212000010079
:1046800000008080808080000033242424241900CE
:10469000008080E0808000000000001F20200000DB
:1046A0008080000000808000001F202020103F201C
:1046B000808080000080808000010E3008060100AC
:1046C00080800080008080800F300C030C300F0051
:1046D00000808000808080000020312E0E3120007C
:1046E000808080000080808080818E7018060100AC
:1046F00000808080808080000021302C22213000CA
:1047000000000000807C020200000000003F4040EA
:1047100000000000FF00000000000000FF0000009B
:104720000002027C800000000040403F00000000CA
:104730000006010102020404000000000000000065
:10474000000000000000F03F000000000000F83F03
:1047500000000000000000000000004003B8E23F3D
:10476000000000000000000006D0CF43EBFD4C3EEF
:10477000033333333333E33FFFAB6FDBB66DDB3FE4
:104780004D268F515555D53F01411DA96074D13F2C
:1047900065DBC9934A86CD3FEF4E454A287ECA3F26
:1047A0003E5555555555C53F93BDBE166CC166BFA8
:1047B0002CDE25AF6A56113FF16BD2C541BDBBBEA1
:1047C000D0A4BE726937663E000000000000000001
:1047D000F0470008000000201C000000280100082D
:1047E0000C4800081C000020040F000044010008D1
:1047F00001000000000000000100000010000000A7
:0C4800000000000000127A000000000020
:04000005080000ED02
:00000001FF
